S01500006C79736F676C79646B617373652E7372656381
S113000010C02AC029C028C027C026C074C124C07B
S113001023C022C021C00AC11FC01EC01DC01CC0F5
S11300201BC011241FBECFE5D1E0DEBFCDBF10E061
S1130030A0E6B0E0EAE2F6E002C005900D92A63F29
S1130040B107D9F720E0A6EFB0E001C01D92AF3FA1
S1130050B207E1F777D1E7C2D3CF87B3836087BB19
S113006088B38C7F88BB0895C09A0895C09808957A
S1130070C19A0895C1980895BA9A80B7836C80BFD5
S113008083B7836083BF83B7837383BF08959C0161
S113009022953295307F3227207F3227A901481BD1
S11300A0590BCA019A0122953295307F3227207F5D
S11300B03227820F931F64E670E07ED166BF0895F5
S11300C0E1D0F89480B7836080BF83B7836083BF37
S11300D083B7837383BF89B7816089BF1092FA00A5
S11300E01092FB0078940895F8941092F9001092FD
S11300F0F8001092F7001092F6001092FC008FEFB7
S11301008093FB0078940895CF93DF939091FB0044
S11301104091F6005091F7009A012F5F3F4F3093C2
S1130120F7002093F6002091FC0030E061E070E0DD
S11301304217530710F460E070E0892F90E08623A3
S11301409723892B09F46FC0D1E0C0E0E091F80057
S1130150F091F900EC59FF4F8081803859F4C8D0F0
S11301608091F8009091F90001969093F9008093A2
S1130170F80026C0E091F800F091F900EC59FF4F27
S113018080818F3F21F4B4D01092FB004CC0A09129
S1130190F800B091F900E091F800F091F900AC5941
S11301A0BF4FEC59FF4F11966C91808183D08091A1
S11301B0F8009091F90002969093F9008093F8006A
S11301C08091F8009091F9009C012F5F3F4F30938C
S11301D0F9002093F800FC01EC59FF4F80818093D3
S11301E0FC001092F7001092F6009091FB006091D1
S11301F0F6007091F7009B012F5F3F4F3093F7009B
S11302002093F6004091FC0050E02D2F3C2F641702
S1130210750710F420E030E0892F90E082239323C7
S1130220892B09F093CFDF91CF9108951F920F92FC
S11302300FB60F9211242F933F934F935F936F93B5
S11302407F938F939F93AF93BF93EF93FF93789490
S11302508091FA0091E0980F9093FA00837009F46A
S113026053DFFF91EF91BF91AF919F918F917F9158
S11302706F915F914F913F912F910F900FBE0F900F
S11302801F901895F894D79A8FB58C7F8FBD8EB533
S11302908A608EBD8EB58F7E8EBD619A1DBC1CBCDE
S11302A08FEF9FEF9BBD8ABD1092FD001092FE0060
S11302B078940895262FF8946CE072D0E92FF0E03A
S11302C0EE0FFF1FE352FF4F822F6AE069D0292F00
S11302D08081918102C0969587952A95E2F79BBD0E
S11302E08ABD1DBC1CBC8FEF8093FE0078940895DA
S11302F01092FE0008951F920F920FB60F921124D0
S11303008F939F938091FE00882361F08091FD007C
S113031091E0980F9093FD009BB38795882787956C
S1130320892B8BBB8091FD009BB38795882787958C
S1130330809589238BBB9F918F910F900FBE0F9057
S11303401F9018958ADE98DEBBDE0F2EFAE0EF2EA2
S1130350F02DF12C04E610E0CE2DDF2D87DE88DEB3
S113036093D0B8013DD093DE9FEF24E38CE091500D
S113037020408040E1F700C0000076DE7BDE84D0C0
S1130380B8012ED084DE9FEF24E38CE0915020400E
S11303908040E1F700C00000219701F7A5DEDCCF23
S11303A0991B79E004C0991F961708F0961B881FC3
S11303B07A95C9F780950895AA1BBB1B51E107C024
S11303C0AA1FBB1FA617B70710F0A61BB70B881FE1
S11303D0991F5A95A9F780959095BC01CD01089570
S11303E097FB072E16F4009406D077FD08D0E4DFBF
S11303F007FC05D03EF4909581959F4F0895709524
S113040061957F4F0895A0E0B0E0E8E0F2E08AC093
S1130410EC01688179818A819B816115710581056F
S1130420910521F464E279ED8BE597E02DE133EF5A
S113043041E050E038D049015A0127EA31E440E074
S113044050E04DD069017A01C501B4012CEE34EFBE
S11304504FEF5FEF44D0022F132F9A01D701C6014B
S1130460800F911FA21FB31FB7FF03C00197A109FB
S1130470B04888839983AA83BB839F77CDB7DEB7BF
S1130480ECE06CC0C0DF089580E690E0BCDF089526
S1130490A0E0B0E08093600090936100A0936200BC
S11304A0B09363000895052E97FB16F400940FD0C3
S11304B057FD05D068D007FC02D046F408C050951B
S11304C04095309521953F4F4F4F5F4F089590953C
S11304D08095709561957F4F8F4F9F4F08956894D5
S11304E00013E894A0E0B0E0E7E7F2E01DC0EFEF0E
S11304F0E7F959016A015E23550FEE08FE2C8701C6
S11305009B01AC019E23990F660B762FCB015DD026
S1130510CDB7DEB7EAE024C02F923F924F925F92AC
S11305206F927F928F929F92AF92BF92CF92DF92FF
S1130530EF92FF920F931F93CF93DF93CDB7DEB764
S1130540CA1BDB0B0FB6F894DEBF0FBECDBF0994F8
S11305502A88398848885F846E847D848C849B844F
S1130560AA84B984C884DF80EE80FD800C811B815D
S1130570AA81B981CE0FD11D0FB6F894DEBF0FBE8C
S1130580CDBFED010895A1E21A2EAA1BBB1BFD01EC
S11305900DC0AA1FBB1FEE1FFF1FA217B307E4075E
S11305A0F50720F0A21BB30BE40BF50B661F771FB6
S11305B0881F991F1A9469F7609570958095909596
S11305C09B01AC01BD01CF010895DF93CF939F92AE
S11305D0A0E49A2E0024D001E001F00116950795BD
S11305E0F794E794D794C794B794A79448F4106801
S11305F0A20FB31FC41FD51FE61FF71F081E191E25
S1130600220F331F441F551F661F771F881F991F12
S11306109A9421F79D01AE01BF01C00111249F905E
S10D0620CF91DF910895F894FFCF05
S113062A0100000007041400051404051407050A50
S113063A800A800A070505800507050A800A040559
S113064A0A800A07050A800A04050A800A00050ABC
S113065A800A04050A800A00050A800A0704288019
S113066A1407041400051404051407050A800A80F3
S113067A0A070505800507050A800A04050A800A8F
S113068A04050A800A04050A800A07040A800A077C
S113069A040A800A07040A800A00053CFFE4EE7C87
S11306AAE1D4D4E2C89CBDF7B2ECA8719F7E960C43
S10906BA8E13868C7E0005
S9030000FC
